:100000000C9434000C9451000C9451000C94510049
:100010000C9451000C9451000C9451000C9451001C
:100020000C9451000C9451000C9451000C9451000C
:100030000C9451000C9451000C9451000C945100FC
:100040000C9451000C9451000C9451000C945100EC
:100050000C9451000C9451000C9451000C945100DC
:100060000C9451000C94510011241FBECFEFD8E026
:10007000DEBFCDBF11E0A0E0B1E0E8E0F4E002C0F7
:1000800005900D92A230B107D9F721E0A2E0B1E0CE
:1000900001C01D92A231B207E1F70E9489000C94C1
:1000A00002020C94000080E285B92FEF83ED90E30B
:1000B000215080409040E1F700C0000015B82FEFBC
:1000C00083ED90E3215080409040E1F700C00000B4
:1000D0000895440F551F440F551F440F551F220FFD
:1000E000331F220F331F242B352B62957295707F9F
:1000F0007627607F7627622B732B880F991F829556
:100100009295907F9827807F9827682B792B6BB9E1
:1001100008958AB18C638AB9259A40E280910201E0
:10012000909103019C01220F331F22953295307F5D
:100130003227207F3227809104019091050182951A
:100140009295907F9827807F9827822B932B2091E0
:10015000060130910701220F331F220F331F220F98
:10016000331F822B932B2091080130910901220F1C
:10017000331F220F331F822B932B8BB945B92FEFDF
:1001800083ED90E3215080409040E1F700C00000F3
:1001900015B82FEF83ED90E3215080409040E1F7B8
:1001A00000C0000080910001909101019093110125
:1001B000809310019093090180930801209102011E
:1001C00030910301B901660F771F62957295707FB8
:1001D0007627607F762720910401309105012295D2
:1001E0003295307F3227207F3227262B372B6091A4
:1001F000060170910701660F771F660F771F660F64
:10020000771F262B372B880F991F880F991F822B5A
:10021000932B8BB945B92FEF83ED90E321508040AC
:100220009040E1F700C0000015B82FEF83ED90E398
:10023000215080409040E1F700C00000809108010B
:100240009091090190930D0180930C019093070107
:10025000809306012091020130910301B901660FDC
:10026000771F62957295707F7627607F7627209141
:1002700004013091050122953295307F3227207F8D
:100280003227262B372BBC01660F771F660F771F8F
:10029000660F771F262B372B880F991F880F991F02
:1002A000822B932B8BB945B92FEF83ED90E321502F
:1002B00080409040E1F700C0000015B82FEF83EDBB
:1002C00090E3215080409040E1F700C00000809111
:1002D00006019091070190930B0180930A0190937E
:1002E0000501809304012091020130910301220F46
:1002F000331F22953295307F3227207F3227BC0171
:1003000062957295707F7627607F7627262B372B34
:10031000880F991F880F991F880F991F822B932B85
:100320002091080130910901220F331F220F331F42
:10033000822B932B8BB945B92FEF83ED90E321509E
:1003400080409040E1F700C0000015B82FEF83ED2A
:1003500090E3215080409040E1F700C00000809180
:1003600004019091050190930F0180930E019093E9
:1003700003018093020121E030E0009711F020E0BA
:1003800030E030930101209300019C01220F331FC4
:1003900022953295307F3227207F322782959295A1
:1003A000907F9827807F9827822B932B209106019E
:1003B00030910701220F331F220F331F220F331FEB
:1003C000822B932B2091080130910901220F331FBA
:1003D000220F331F822B932B8BB945B92FEF83ED5F
:1003E00090E3215080409040E1F700C0000015B834
:1003F0002FEF83ED90E3215080409040E1F700C063
:0804000000008CCEF894FFCF40
:020408000100F1
:00000001FF
